:100000000C942A000C9447000C9447000C94470071
:100010000C9447000C9447000C9447000C946A041D
:100020000C9493040C94BC040C94E3040C940C0501
:100030000C9447000C9447000C9447000C94470024
:100040000C9447000C9447000C9447000C94470014
:100050000C94470011241FBECFE5D8E0DEBFCDBF12
:1000600010E0A0E6B0E0ECE3FCE002C005900D92E9
:10007000A43CB107D9F720E0A4ECB0E001C01D9288
:10008000A93CB207E1F70E94C8020C941C060C942C
:10009000000041E060E082E00E946301813061F491
:1000A00041E060E082E00E9463018111F9CF80911C
:1000B000C4008F5F8093C40008950F931F93CF9364
:1000C000DF93082F162FD42FC0E00E94A905CF5F21
:1000D000DC17D8F7612F70E06F5F7F4F601B7109ED
:1000E0000E943505DF91CF911F910F9108950E94D5
:1000F000BD0141E060E082E00E943B0185E690E0C6
:100100000E94600268E082E00E944A020E943D0470
:1001100087EF92EC0E94620481EF90E00E946504F8
:1001200046E06FE080E00E945D008093C800089583
:100130002FE38DE093E0215080409040E1F700C034
:1001400000001092C500809164008F5F809364006E
:1001500061E081E00E944A0285E690E00E94600230
:10016000409164006FE080E00E945D008093C800D1
:1001700068E082E00E944A0208950E947C0264E0E6
:1001800081E00E944A0286E790E00E9460020E949D
:10019000980008950E947C0264E081E00E944A0277
:1001A00080E890E00E9460020E94980008950E94FA
:1001B0007C0261E081E00E944A028BE890E00E94AC
:1001C00060020E94980008950E947C0261E081E034
:1001D0000E944A028AE990E00E9460020E94980010
:1001E00008958091C5008F5F8093C500843009F029
:1001F00041C08091C40081508F3070F50E947C0214
:1002000061E081E00E944A028AEA90E00E94600276
:100210008091C4000E94800261E082E00E944A0254
:1002200087EB90E00E9460028091C8000E948002EB
:100230002FE38DE093E0215080409040E1F700C033
:1002400000009091C4008091C800981303C00E94E0
:10025000BD0002C00E94CA008091C400811102C08A
:100260000E94D7008091C400803110F00E94E40009
:100270001092C40008951F93CF93DF938430D0F47D
:100280006830D0F4142FD62FC82F40E00E94CD0242
:10029000111107C041E06D2F8C2F0E94520381E0A5
:1002A0000EC0113059F440E06D2F8C2F0E94520384
:1002B00081E005C08FEF03C08FEF01C081E0DF91C7
:1002C000CF911F910895411107C00E940F0491E042
:1002D000882361F090E00AC0413039F40E940F0495
:1002E00091E0813019F090E001C09FEF892F0895CF
:1002F000CF93C82F40E060E081E00E94520340E0CD
:1003000061E081E00E9452036C2F607F80E00E94D8
:10031000D70341E062E081E00E94520381EE94E065
:100320000197F1F700C0000040E062E081E00E9428
:10033000520383EC99E00197F1F700C000006C2FA5
:100340006295607F80E00E94D70341E062E081E037
:100350000E94520381EE94E00197F1F700C0000083
:1003600040E062E081E00E94520383EC99E0019753
:10037000F1F700C00000CF91089541E060E081E016
:100380000E94CD0241E061E081E00E94CD0241E0A7
:1003900062E081E00E94CD0241E064E080E00E94E2
:1003A000CD0241E065E080E00E94CD0241E066E0E0
:1003B00080E00E94CD0241E067E080E00E94CD0233
:1003C00083ED90E30197F1F700C0000082E00E9406
:1003D000780188E20E94780189EF90E00197F1F7B7
:1003E00000C000008CE00E94780189EF90E0019746
:1003F000F1F700C0000081E00E94780181EE94E0F6
:100400000197F1F700C000000895CF93C82F41E095
:1004100060E081E00E94520340E061E081E00E94E0
:1004200052036C2F607F80E00E94D70341E062E0BE
:1004300081E00E94520381EE94E00197F1F700C041
:10044000000040E062E081E00E94520383EC99E00A
:100450000197F1F700C000006C2F6295607F80E08B
:100460000E94D70341E062E081E00E94520381EEE6
:1004700094E00197F1F700C0000040E062E081E005
:100480000E94520383EC99E00197F1F700C000004D
:10049000CF9108959FEF960F903178F4813019F045
:1004A000823031F00CC08FE7860F0E94780107C0C0
:1004B0008FEB860F0E94780102C08FEF0895089598
:1004C0000F931F93CF93FC018081882389F08F01C4
:1004D000C0E00E94050289EF90E00197F1F700C0AB
:1004E0000000CF5FF801EC0FF11D80818111F1CF89
:1004F000CF911F910F91089581E00E947801089596
:10050000CF93DF9399E2899F912D112492959F704B
:10051000282F34E6939F201911249DEC299F212D2B
:100520001124269526952695C0E3C20F899F912D0B
:100530001124969596959695990F292F220F220FA3
:10054000920F282F291BD0E3D20F8A3020F48D2F51
:100550000E9405021AC096EF980F9A3538F48C2F36
:100560000E9405028D2F0E9405020FC099E2899F0B
:10057000812D112482958F70805D0E9405028C2F41
:100580000E9405028D2F0E940502DF91CF910895F0
:100590000E9477000E944900FDCF413009F040C021
:1005A0008130A1F028F08230F9F0833059F10895BC
:1005B000683008F076C02AB381E090E002C0880F6E
:1005C000991F6A95E2F7822B8ABB0895683008F07C
:1005D00068C027B381E090E002C0880F991F6A9538
:1005E000E2F7822B87BB0895683008F05AC024B325
:1005F00081E090E002C0880F991F6A95E2F7822B94
:1006000084BB0895683008F04CC021B381E090E0CD
:1006100002C0880F991F6A95E2F7822B81BB08956B
:1006200041113FC08130A1F028F08230F9F08330D1
:1006300059F108956830A8F52AB381E090E002C02E
:10064000880F991F6A95E2F7809582238ABB0895E7
:10065000683038F527B381E090E002C0880F991F19
:100660006A95E2F78095822387BB08956830C8F4C5
:1006700024B381E090E002C0880F991F6A95E2F7E9
:100680008095822384BB0895683058F421B381E0BB
:1006900090E002C0880F991F6A95E2F78095822347
:1006A00081BB0895413009F040C08130A1F028F0AD
:1006B0008230F9F0833059F10895683008F076C03F
:1006C0002BB381E090E002C0880F991F6A95E2F792
:1006D000822B8BBB0895683008F068C028B381E096
:1006E00090E002C0880F991F6A95E2F7822B88BBC1
:1006F0000895683008F05AC025B381E090E002C048
:10070000880F991F6A95E2F7822B85BB08956830A0
:1007100008F04CC022B381E090E002C0880F991F1E
:100720006A95E2F7822B82BB089541113FC0813068
:10073000A1F028F08230F9F0833059F10895683043
:10074000A8F52BB381E090E002C0880F991F6A954D
:10075000E2F7809582238BBB0895683038F528B383
:1007600081E090E002C0880F991F6A95E2F78095BA
:10077000822388BB08956830C8F425B381E090E0F7
:1007800002C0880F991F6A95E2F78095822385BB86
:100790000895683058F422B381E090E002C0880FD9
:1007A000991F6A95E2F78095822382BB0895613094
:1007B000A1F4813049F028F0823049F0833051F0C3
:1007C00008958FEF8BBB08958FEF88BB08958FEF4F
:1007D00085BB08958FEF82BB0895611110C08130F1
:1007E00041F028F0823039F0833039F008951BBA97
:1007F000089518BA089515BA089512BA0895813067
:1008000041F028F0823039F0833039F008956BBB25
:10081000089568BB089565BB089562BB0895813053
:1008200079F028F08230A9F08330E1F024C089B358
:1008300090E002C0959587956A95E2F781700895DA
:1008400086B390E002C0959587956A95E2F781702E
:10085000089583B390E002C0959587956A95E2F775
:100860008170089580B390E002C0959587956A9550
:10087000E2F78170089580E0089583B78B7F83BF8E
:1008800083B78D7F83BF83B78E7F83BF8FB7806829
:100890008FBF89B7846089BF89B78F7E89BF89B7C9
:1008A000877F89BF8EB58F7E8EBD8EB5877F8EBDCB
:1008B0008FB58D7F8FBD8FB58E7F8FBD8EB58360D9
:1008C0008EBD08959DBD8CBD08959093C700809303
:1008D000C60008951F920F920FB60F9211242F9306
:1008E0003F934F935F936F937F938F939F93AF93B8
:1008F000BF93EF93FF93E091C600F091C70030974C
:1009000009F00995FF91EF91BF91AF919F918F9160
:100910007F916F915F914F913F912F910F900FBEFB
:100920000F901F9018951F920F920FB60F921124DF
:100930002F933F934F935F936F937F938F939F93E7
:10094000AF93BF93EF93FF93E091C600F091C70080
:10095000309709F00995FF91EF91BF91AF919F9169
:100960008F917F916F915F914F913F912F910F9058
:100970000FBE0F901F9018951F920F920FB60F92F7
:1009800011242F933F934F935F936F937F938F9394
:100990009F93AF93BF93EF93FF93E091C600F091C5
:1009A000C7000995FF91EF91BF91AF919F918F91F2
:1009B0007F916F915F914F913F912F910F900FBE5B
:1009C0000F901F9018951F920F920FB60F9211243F
:1009D0002F933F934F935F936F937F938F939F9347
:1009E000AF93BF93EF93FF93E091C600F091C700E0
:1009F000309709F00995FF91EF91BF91AF919F91C9
:100A00008F917F916F915F914F913F912F910F90B7
:100A10000FBE0F901F9018951F920F920FB60F9256
:100A200011242F933F934F935F936F937F938F93F3
:100A30009F93AF93BF93EF93FF93E091C600F09124
:100A4000C700309709F00995FF91EF91BF91AF91E1
:100A50009F918F917F916F915F914F913F912F91D6
:100A60000F900FBE0F901F90189597FB072E16F44E
:100A7000009407D077FD09D00E94490507FC05D0F6
:100A80003EF4909581959F4F0895709561957F4FA5
:100A90000895AA1BBB1B51E107C0AA1FBB1FA617C5
:100AA000B70710F0A61BB70B881F991F5A95A9F717
:100AB00080959095BC01CD0108958F929F92AF9241
:100AC000BF92CF92DF92EF92FF92CF93DF93EC0130
:100AD000688179818A819B81611571058105910504
:100AE00021F464E279ED8BE597E02DE133EF41E00D
:100AF00050E00E94B90549015A019B01AC01A7EAE7
:100B0000B1E40E94D8056B017C01ACEEB4EFA50105
:100B100094010E94E605DC01CB018C0D9D1DAE1DEC
:100B2000BF1DB7FF03C00197A109B048888399830F
:100B3000AA83BB839F77DF91CF91FF90EF90DF90E7
:100B4000CF90BF90AF909F908F9008950E945D05C9
:100B5000089580E690E00E945D050895A0E0B0E071
:100B60008093600090936100A0936200B093630053
:100B70000895052E97FB1EF400940E94D00557FDA2
:100B800007D00E94EB0507FC03D04EF40C94D0056F
:100B900050954095309521953F4F4F4F5F4F0895A9
:100BA00090958095709561957F4F8F4F9F4F0895D9
:100BB0000E940D06A59F900DB49F900DA49F800DDF
:100BC000911D11240895B7FF0C94D8050E94D805F3
:100BD000821B930B0895A1E21A2EAA1BBB1BFD01D9
:100BE0000DC0AA1FBB1FEE1FFF1FA217B307E4070C
:100BF000F50720F0A21BB30BE40BF50B661F771F64
:100C0000881F991F1A9469F7609570958095909543
:100C10009B01AC01BD01CF010895A29FB001B39F1C
:100C2000C001A39F700D811D1124911DB29F700DF5
:0C0C3000811D1124911D0895F894FFCF40
:100C3C000100000001477565737320546865204EF0
:100C4C00756D62657200594F5520574F4E2021002B
:100C5C00594F55204C4F5345202100596F75204D4D
:100C6C00757374205072657373004E6F74205661E7
:100C7C006C69642052616E676500596F757220470C
:100C8C00756573733A200041637475616C20202084
:040C9C00203A2000DA
:00000001FF
